:100000000EC01DC01CC01BC01AC019C018C017C02C
:1000100016C015C014C013C012C011C010C01124E6
:100020001FBECFE5D2E0DEBFCDBF20E0A0E6B0E04E
:1000300001C01D92A436B207E1F74FD07AC0E0CFDD
:10004000E0E6F0E08083609361004093620018BABC
:1000500081E090E09C0102C0220F331F6A95E2F715
:10006000B9019C01008002C0220F331F0A94E2F7FD
:10007000262B042E01C0880F0A94EAF7282B27BBF1
:10008000089581E090E00090600002C0880F991F01
:100090000A94E2F786BB089581E090E00090610049
:1000A00002C0880F991F0A94E2F786BB089581E089
:1000B00090E00090620002C0880F991F0A94E2F756
:1000C00086BB0895009741F0EFECF7E03197F1F728
:1000D00000C000000197F6CF089542E061E080E0A3
:1000E000AFDF10926300CDDF8091630090E0EADF24
:1000F000D3DF8091630090E0E5DFD9DF809163007A
:1001000090E0E0DFBEDF8091630090E0DBDFC4DFE2
:100110008091630090E0D6DFCADF8091630090E0B9
:10012000D1DF809163008F5F8093630080916300D3
:06013000DACFF894FFCFC6
:00000001FF
